{
  "config" : {
    "chainId" : 1337,
    "berlinBlock" : 0,
    "qbft" : {
      "blockperiodseconds" : 10,
      "epochlength" : 30000,
      "requesttimeoutseconds" : 4
    }
  },
  "nonce" : "0x0",
  "timestamp" : "0x58ee40ba",
  "gasLimit" : "0x47b760",
  "difficulty" : "0x1",
  "mixHash" : "0x63746963616c2062797a616e74696e65206661756c7420746f6c6572616e6365",
  "coinbase" : "0x0000000000000000000000000000000000000000",
  "alloc": {
    "0x93b42a1225209a163dbb753cb5341820ca7656e5": {
      "balance": "0xad78Eebc5ac6200000"
    },
    "0x742f05fb8206c6f667d9890934de9aea3a31eb09": {
      "balance": "0xad78Eebc5ac6200000"
    },
    "0x9247653714c6d6060c0fc1de1e113582c4537525": {
      "balance": "0xad78Eebc5ac6200000"
    },
    "0xd75e39d2f7e7eeba06dc1cad8229163edd08c0f9": {
      "balance": "0xad78Eebc5ac6200000"
    }
  },
  "extraData" : "0xf87aa00000000000000000000000000000000000000000000000000000000000000000f8549493b42a1225209a163dbb753cb5341820ca7656e594742f05fb8206c6f667d9890934de9aea3a31eb09949247653714c6d6060c0fc1de1e113582c453752594d75e39d2f7e7eeba06dc1cad8229163edd08c0f9c080c0"
}